{
  "_format": "hh-sol-artifact-1",
  "contractName": "ImageCertificateSBT",
  "sourceName": "contracts/ImageCertificateSBT.sol",
  "abi": [
    {
      "inputs": [
        {
          "internalType": "address",
          "name": "initialOwner",
          "type": "address"
        }
      ],
      "stateMutability": "nonpayable",
      "type": "constructor"
    },
    {
      "inputs": [
        {
          "internalType": "address",
          "name": "sender",
          "type": "address"
        },
        {
          "internalType": "uint256",
          "name": "tokenId",
          "type": "uint256"
        },
        {
          "internalType": "address",
          "name": "owner",
          "type": "address"
        }
      ],
      "name": "ERC721IncorrectOwner",
      "type": "error"
    },
    {
      "inputs": [
        {
          "internalType": "address",
          "name": "operator",
          "type": "address"
        },
        {
          "internalType": "uint256",
          "name": "tokenId",
          "type": "uint256"
        }
      ],
      "name": "ERC721InsufficientApproval",
      "type": "error"
    },
    {
      "inputs": [
        {
          "internalType": "address",
          "name": "approver",
          "type": "address"
        }
      ],
      "name": "ERC721InvalidApprover",
      "type": "error"
    },
    {
      "inputs": [
        {
          "internalType": "address",
          "name": "operator",
          "type": "address"
        }
      ],
      "name": "ERC721InvalidOperator",
      "type": "error"
    },
    {
      "inputs": [
        {
          "internalType": "address",
          "name": "owner",
          "type": "address"
        }
      ],
      "name": "ERC721InvalidOwner",
      "type": "error"
    },
    {
      "inputs": [
        {
          "internalType": "address",
          "name": "receiver",
          "type": "address"
        }
      ],
      "name": "ERC721InvalidReceiver",
      "type": "error"
    },
    {
      "inputs": [
        {
          "internalType": "address",
          "name": "sender",
          "type": "address"
        }
      ],
      "name": "ERC721InvalidSender",
      "type": "error"
    },
    {
      "inputs": [
        {
          "internalType": "uint256",
          "name": "tokenId",
          "type": "uint256"
        }
      ],
      "name": "ERC721NonexistentToken",
      "type": "error"
    },
    {
      "inputs": [
        {
          "internalType": "address",
          "name": "owner",
          "type": "address"
        }
      ],
      "name": "OwnableInvalidOwner",
      "type": "error"
    },
    {
      "inputs": [
        {
          "internalType": "address",
          "name": "account",
          "type": "address"
        }
      ],
      "name": "OwnableUnauthorizedAccount",
      "type": "error"
    },
    {
      "anonymous": false,
      "inputs": [
        {
          "indexed": true,
          "internalType": "address",
          "name": "owner",
          "type": "address"
        },
        {
          "indexed": true,
          "internalType": "address",
          "name": "approved",
          "type": "address"
        },
        {
          "indexed": true,
          "internalType": "uint256",
          "name": "tokenId",
          "type": "uint256"
        }
      ],
      "name": "Approval",
      "type": "event"
    },
    {
      "anonymous": false,
      "inputs": [
        {
          "indexed": true,
          "internalType": "address",
          "name": "owner",
          "type": "address"
        },
        {
          "indexed": true,
          "internalType": "address",
          "name": "operator",
          "type": "address"
        },
        {
          "indexed": false,
          "internalType": "bool",
          "name": "approved",
          "type": "bool"
        }
      ],
      "name": "ApprovalForAll",
      "type": "event"
    },
    {
      "anonymous": false,
      "inputs": [
        {
          "indexed": false,
          "internalType": "uint256",
          "name": "_fromTokenId",
          "type": "uint256"
        },
        {
          "indexed": false,
          "internalType": "uint256",
          "name": "_toTokenId",
          "type": "uint256"
        }
      ],
      "name": "BatchMetadataUpdate",
      "type": "event"
    },
    {
      "anonymous": false,
      "inputs": [
        {
          "indexed": false,
          "internalType": "uint256",
          "name": "_tokenId",
          "type": "uint256"
        }
      ],
      "name": "MetadataUpdate",
      "type": "event"
    },
    {
      "anonymous": false,
      "inputs": [
        {
          "indexed": true,
          "internalType": "address",
          "name": "previousOwner",
          "type": "address"
        },
        {
          "indexed": true,
          "internalType": "address",
          "name": "newOwner",
          "type": "address"
        }
      ],
      "name": "OwnershipTransferred",
      "type": "event"
    },
    {
      "anonymous": false,
      "inputs": [
        {
          "indexed": true,
          "internalType": "address",
          "name": "from",
          "type": "address"
        },
        {
          "indexed": true,
          "internalType": "address",
          "name": "to",
          "type": "address"
        },
        {
          "indexed": true,
          "internalType": "uint256",
          "name": "tokenId",
          "type": "uint256"
        }
      ],
      "name": "Transfer",
      "type": "event"
    },
    {
      "inputs": [
        {
          "internalType": "address",
          "name": "to",
          "type": "address"
        },
        {
          "internalType": "uint256",
          "name": "tokenId",
          "type": "uint256"
        }
      ],
      "name": "approve",
      "outputs": [],
      "stateMutability": "nonpayable",
      "type": "function"
    },
    {
      "inputs": [
        {
          "internalType": "address",
          "name": "owner",
          "type": "address"
        }
      ],
      "name": "balanceOf",
      "outputs": [
        {
          "internalType": "uint256",
          "name": "",
          "type": "uint256"
        }
      ],
      "stateMutability": "view",
      "type": "function"
    },
    {
      "inputs": [
        {
          "internalType": "uint256",
          "name": "tokenId",
          "type": "uint256"
        }
      ],
      "name": "getApproved",
      "outputs": [
        {
          "internalType": "address",
          "name": "",
          "type": "address"
        }
      ],
      "stateMutability": "view",
      "type": "function"
    },
    {
      "inputs": [
        {
          "internalType": "uint256",
          "name": "tokenId",
          "type": "uint256"
        }
      ],
      "name": "getCertificate",
      "outputs": [
        {
          "components": [
            {
              "internalType": "string",
              "name": "holderName",
              "type": "string"
            },
            {
              "internalType": "string",
              "name": "issuingEntity",
              "type": "string"
            },
            {
              "internalType": "uint256",
              "name": "date",
              "type": "uint256"
            },
            {
              "internalType": "string",
              "name": "purpose",
              "type": "string"
            },
            {
              "internalType": "string",
              "name": "uniqueId",
              "type": "string"
            }
          ],
          "internalType": "struct ImageCertificateSBT.Certificate",
          "name": "",
          "type": "tuple"
        }
      ],
      "stateMutability": "view",
      "type": "function"
    },
    {
      "inputs": [
        {
          "internalType": "address",
          "name": "owner",
          "type": "address"
        },
        {
          "internalType": "address",
          "name": "operator",
          "type": "address"
        }
      ],
      "name": "isApprovedForAll",
      "outputs": [
        {
          "internalType": "bool",
          "name": "",
          "type": "bool"
        }
      ],
      "stateMutability": "view",
      "type": "function"
    },
    {
      "inputs": [],
      "name": "name",
      "outputs": [
        {
          "internalType": "string",
          "name": "",
          "type": "string"
        }
      ],
      "stateMutability": "view",
      "type": "function"
    },
    {
      "inputs": [],
      "name": "owner",
      "outputs": [
        {
          "internalType": "address",
          "name": "",
          "type": "address"
        }
      ],
      "stateMutability": "view",
      "type": "function"
    },
    {
      "inputs": [
        {
          "internalType": "uint256",
          "name": "tokenId",
          "type": "uint256"
        }
      ],
      "name": "ownerOf",
      "outputs": [
        {
          "internalType": "address",
          "name": "",
          "type": "address"
        }
      ],
      "stateMutability": "view",
      "type": "function"
    },
    {
      "inputs": [],
      "name": "renounceOwnership",
      "outputs": [],
      "stateMutability": "nonpayable",
      "type": "function"
    },
    {
      "inputs": [
        {
          "internalType": "address",
          "name": "to",
          "type": "address"
        },
        {
          "internalType": "string",
          "name": "holderName",
          "type": "string"
        },
        {
          "internalType": "string",
          "name": "issuingEntity",
          "type": "string"
        },
        {
          "internalType": "uint256",
          "name": "date",
          "type": "uint256"
        },
        {
          "internalType": "string",
          "name": "purpose",
          "type": "string"
        },
        {
          "internalType": "string",
          "name": "uniqueId",
          "type": "string"
        },
        {
          "internalType": "string",
          "name": "uri",
          "type": "string"
        }
      ],
      "name": "safeMint",
      "outputs": [
        {
          "internalType": "uint256",
          "name": "",
          "type": "uint256"
        }
      ],
      "stateMutability": "nonpayable",
      "type": "function"
    },
    {
      "inputs": [
        {
          "internalType": "address",
          "name": "from",
          "type": "address"
        },
        {
          "internalType": "address",
          "name": "to",
          "type": "address"
        },
        {
          "internalType": "uint256",
          "name": "tokenId",
          "type": "uint256"
        }
      ],
      "name": "safeTransferFrom",
      "outputs": [],
      "stateMutability": "nonpayable",
      "type": "function"
    },
    {
      "inputs": [
        {
          "internalType": "address",
          "name": "from",
          "type": "address"
        },
        {
          "internalType": "address",
          "name": "to",
          "type": "address"
        },
        {
          "internalType": "uint256",
          "name": "tokenId",
          "type": "uint256"
        },
        {
          "internalType": "bytes",
          "name": "data",
          "type": "bytes"
        }
      ],
      "name": "safeTransferFrom",
      "outputs": [],
      "stateMutability": "nonpayable",
      "type": "function"
    },
    {
      "inputs": [
        {
          "internalType": "address",
          "name": "operator",
          "type": "address"
        },
        {
          "internalType": "bool",
          "name": "approved",
          "type": "bool"
        }
      ],
      "name": "setApprovalForAll",
      "outputs": [],
      "stateMutability": "nonpayable",
      "type": "function"
    },
    {
      "inputs": [
        {
          "internalType": "bytes4",
          "name": "interfaceId",
          "type": "bytes4"
        }
      ],
      "name": "supportsInterface",
      "outputs": [
        {
          "internalType": "bool",
          "name": "",
          "type": "bool"
        }
      ],
      "stateMutability": "view",
      "type": "function"
    },
    {
      "inputs": [],
      "name": "symbol",
      "outputs": [
        {
          "internalType": "string",
          "name": "",
          "type": "string"
        }
      ],
      "stateMutability": "view",
      "type": "function"
    },
    {
      "inputs": [
        {
          "internalType": "uint256",
          "name": "tokenId",
          "type": "uint256"
        }
      ],
      "name": "tokenURI",
      "outputs": [
        {
          "internalType": "string",
          "name": "",
          "type": "string"
        }
      ],
      "stateMutability": "view",
      "type": "function"
    },
    {
      "inputs": [
        {
          "internalType": "address",
          "name": "from",
          "type": "address"
        },
        {
          "internalType": "address",
          "name": "to",
          "type": "address"
        },
        {
          "internalType": "uint256",
          "name": "tokenId",
          "type": "uint256"
        }
      ],
      "name": "transferFrom",
      "outputs": [],
      "stateMutability": "nonpayable",
      "type": "function"
    },
    {
      "inputs": [
        {
          "internalType": "address",
          "name": "newOwner",
          "type": "address"
        }
      ],
      "name": "transferOwnership",
      "outputs": [],
      "stateMutability": "nonpayable",
      "type": "function"
    }
  ],
  "bytecode": "0x60806040523480156200001157600080fd5b5060405162001ce138038062001ce1833981016040819052620000349162000140565b806040518060400160405280601381526020017f496d616765436572746966696361746553425400000000000000000000000000815250604051806040016040528060058152602001641250d1549560da1b81525081600090816200009a919062000217565b506001620000a9828262000217565b5050506001600160a01b038116620000db57604051631e4fbdf760e01b81526000600482015260240160405180910390fd5b620000e681620000ee565b5050620002e3565b600780546001600160a01b038381166001600160a01b0319831681179093556040519116919082907f8be0079c531659141344cd1fd0a4f28419497f9722a3daafe3b4186f6b6457e090600090a35050565b6000602082840312156200015357600080fd5b81516001600160a01b03811681146200016b57600080fd5b9392505050565b634e487b7160e01b600052604160045260246000fd5b600181811c908216806200019d57607f821691505b602082108103620001be57634e487b7160e01b600052602260045260246000fd5b50919050565b601f8211156200021257600081815260208120601f850160051c81016020861015620001ed5750805b601f850160051c820191505b818110156200020e57828155600101620001f9565b5050505b505050565b81516001600160401b0381111562000233576200023362000172565b6200024b8162000244845462000188565b84620001c4565b602080601f8311600181146200028357600084156200026a5750858301515b600019600386901b1c1916600185901b1785556200020e565b600085815260208120601f198616915b82811015620002b45788860151825594840194600190910190840162000293565b5085821015620002d35787850151600019600388901b60f8161c191681555b5050505050600190811b01905550565b6119ee80620002f36000396000f3fe608060405234801561001057600080fd5b50600436106101165760003560e01c806370a08231116100a2578063a22cb46511610071578063a22cb46514610246578063b88d4fde14610259578063c87b56dd1461026c578063e985e9c51461027f578063f2fde38b1461029257600080fd5b806370a0823114610212578063715018a6146102255780638da5cb5b1461022d57806395d89b411461023e57600080fd5b806323b872dd116100e957806323b872dd146101985780633753d457146101ab57806342842e0e146101cc57806351640fee146101df5780636352211e146101ff57600080fd5b806301ffc9a71461011b57806306fdde0314610143578063081812fc14610158578063095ea7b314610183575b600080fd5b61012e610129366004611390565b6102a5565b60405190151581526020015b60405180910390f35b61014b6102b6565b60405161013a91906113fd565b61016b610166366004611410565b610348565b6040516001600160a01b03909116815260200161013a565b610196610191366004611445565b610371565b005b6101966101a636600461146f565b610380565b6101be6101b9366004611557565b610410565b60405190815260200161013a565b6101966101da36600461146f565b6104e3565b6101f26101ed366004611410565b610503565b60405161013a9190611643565b61016b61020d366004611410565b6107fb565b6101be6102203660046116c2565b610806565b61019661084e565b6007546001600160a01b031661016b565b61014b610862565b6101966102543660046116dd565b610871565b610196610267366004611719565b61087c565b61014b61027a366004611410565b610894565b61012e61028d366004611795565b61089f565b6101966102a03660046116c2565b6108cd565b60006102b08261090b565b92915050565b6060600080546102c5906117c8565b80601f01602080910402602001604051908101604052809291908181526020018280546102f1906117c8565b801561033e5780601f106103135761010080835404028352916020019161033e565b820191906000526020600020905b81548152906001019060200180831161032157829003601f168201915b5050505050905090565b600061035382610930565b506000828152600460205260409020546001600160a01b03166102b0565b61037c828233610969565b5050565b6001600160a01b0382166103af57604051633250574960e11b8152600060048201526024015b60405180910390fd5b60006103bc838333610976565b9050836001600160a01b0316816001600160a01b03161461040a576040516364283d7b60e01b81526001600160a01b03808616600483015260248201849052821660448201526064016103a6565b50505050565b600061041a610a17565b600880546000918261042b83611802565b91905055905061043b8982610a44565b6104458184610a5e565b6040805160a08101825289815260208082018a9052818301899052606082018890526080820187905260008481526009909152919091208151819061048a908261186f565b506020820151600182019061049f908261186f565b5060408201516002820155606082015160038201906104be908261186f565b50608082015160048201906104d3908261186f565b50919a9950505050505050505050565b6104fe8383836040518060200160405280600081525061087c565b505050565b6105356040518060a0016040528060608152602001606081526020016000815260200160608152602001606081525090565b61053e82610aae565b61058a5760405162461bcd60e51b815260206004820152601a60248201527f436572746966696361746520646f6573206e6f7420657869737400000000000060448201526064016103a6565b60008281526009602052604090819020815160a081019092528054829082906105b2906117c8565b80601f01602080910402602001604051908101604052809291908181526020018280546105de906117c8565b801561062b5780601f106106005761010080835404028352916020019161062b565b820191906000526020600020905b81548152906001019060200180831161060e57829003601f168201915b50505050508152602001600182018054610644906117c8565b80601f0160208091040260200160405190810160405280929190818152602001828054610670906117c8565b80156106bd5780601f10610692576101008083540402835291602001916106bd565b820191906000526020600020905b8154815290600101906020018083116106a057829003601f168201915b50505050508152602001600282015481526020016003820180546106e0906117c8565b80601f016020809104026020016040519081016040528092919081815260200182805461070c906117c8565b80156107595780601f1061072e57610100808354040283529160200191610759565b820191906000526020600020905b81548152906001019060200180831161073c57829003601f168201915b50505050508152602001600482018054610772906117c8565b80601f016020809104026020016040519081016040528092919081815260200182805461079e906117c8565b80156107eb5780601f106107c0576101008083540402835291602001916107eb565b820191906000526020600020905b8154815290600101906020018083116107ce57829003601f168201915b5050505050815250509050919050565b60006102b082610930565b60006001600160a01b038216610832576040516322718ad960e21b8152600060048201526024016103a6565b506001600160a01b031660009081526003602052604090205490565b610856610a17565b6108606000610ada565b565b6060600180546102c5906117c8565b61037c338383610b2c565b610887848484610380565b61040a3385858585610bcb565b60606102b082610cf6565b6001600160a01b03918216600090815260056020908152604080832093909416825291909152205460ff1690565b6108d5610a17565b6001600160a01b0381166108ff57604051631e4fbdf760e01b8152600060048201526024016103a6565b61090881610ada565b50565b60006001600160e01b03198216632483248360e11b14806102b057506102b082610e07565b6000818152600260205260408120546001600160a01b0316806102b057604051637e27328960e01b8152600481018490526024016103a6565b6104fe8383836001610e57565b6000828152600260205260408120546001600160a01b03168015806109ac5750806001600160a01b0316856001600160a01b0316145b610a035760405162461bcd60e51b815260206004820152602260248201527f5342543a20746f6b656e207472616e73666572206973206e6f7420616c6c6f77604482015261195960f21b60648201526084016103a6565b610a0e858585610f5d565b95945050505050565b6007546001600160a01b031633146108605760405163118cdaa760e01b81523360048201526024016103a6565b61037c828260405180602001604052806000815250611056565b6000828152600660205260409020610a76828261186f565b506040518281527ff8e1a15aba9398e019f0b49df1a4fde98ee17ae345cb5f6b5e2c27f5033e8ce79060200160405180910390a15050565b6000600854821080156102b05750506000908152600260205260409020546001600160a01b0316151590565b600780546001600160a01b038381166001600160a01b0319831681179093556040519116919082907f8be0079c531659141344cd1fd0a4f28419497f9722a3daafe3b4186f6b6457e090600090a35050565b6001600160a01b038216610b5e57604051630b61174360e31b81526001600160a01b03831660048201526024016103a6565b6001600160a01b03838116600081815260056020908152604080832094871680845294825291829020805460ff191686151590811790915591519182527f17307eab39ab6107e8899845ad3d59bd9653f200f220920489ca2b5937696c31910160405180910390a3505050565b6001600160a01b0383163b15610cef57604051630a85bd0160e11b81526001600160a01b0384169063150b7a0290610c0d90889088908790879060040161192f565b6020604051808303816000875af1925050508015610c48575060408051601f3d908101601f19168201909252610c459181019061196c565b60015b610cb1573d808015610c76576040519150601f19603f3d011682016040523d82523d6000602084013e610c7b565b606091505b508051600003610ca957604051633250574960e11b81526001600160a01b03851660048201526024016103a6565b805181602001fd5b6001600160e01b03198116630a85bd0160e11b14610ced57604051633250574960e11b81526001600160a01b03851660048201526024016103a6565b505b5050505050565b6060610d0182610930565b5060008281526006602052604081208054610d1b906117c8565b80601f0160208091040260200160405190810160405280929190818152602001828054610d47906117c8565b8015610d945780601f10610d6957610100808354040283529160200191610d94565b820191906000526020600020905b815481529060010190602001808311610d7757829003601f168201915b505050505090506000610db260408051602081019091526000815290565b90508051600003610dc4575092915050565b815115610df6578082604051602001610dde929190611989565b60405160208183030381529060405292505050919050565b610dff8461106e565b949350505050565b60006001600160e01b031982166380ac58cd60e01b1480610e3857506001600160e01b03198216635b5e139f60e01b145b806102b057506301ffc9a760e01b6001600160e01b03198316146102b0565b8080610e6b57506001600160a01b03821615155b15610f2d576000610e7b84610930565b90506001600160a01b03831615801590610ea75750826001600160a01b0316816001600160a01b031614155b8015610eba5750610eb8818461089f565b155b15610ee35760405163a9fbf51f60e01b81526001600160a01b03841660048201526024016103a6565b8115610f2b5783856001600160a01b0316826001600160a01b03167f8c5be1e5ebec7d5bd14f71427d1e84f3dd0314c0f7b2291e5b200ac8c7c3b92560405160405180910390a45b505b5050600090815260046020526040902080546001600160a01b0319166001600160a01b0392909216919091179055565b6000828152600260205260408120546001600160a01b0390811690831615610f8a57610f8a8184866110e3565b6001600160a01b03811615610fc857610fa7600085600080610e57565b6001600160a01b038116600090815260036020526040902080546000190190555b6001600160a01b03851615610ff7576001600160a01b0385166000908152600360205260409020805460010190555b60008481526002602052604080822080546001600160a01b0319166001600160a01b0389811691821790925591518793918516917fddf252ad1be2c89b69c2b068fc378daa952ba7f163c4a11628f55a4df523b3ef91a4949350505050565b6110608383611147565b6104fe336000858585610bcb565b606061107982610930565b50600061109160408051602081019091526000815290565b905060008151116110b157604051806020016040528060008152506110dc565b806110bb846111ac565b6040516020016110cc929190611989565b6040516020818303038152906040525b9392505050565b6110ee83838361123f565b6104fe576001600160a01b03831661111c57604051637e27328960e01b8152600481018290526024016103a6565b60405163177e802f60e01b81526001600160a01b0383166004820152602481018290526044016103a6565b6001600160a01b03821661117157604051633250574960e11b8152600060048201526024016103a6565b600061117f83836000610976565b90506001600160a01b038116156104fe576040516339e3563760e11b8152600060048201526024016103a6565b606060006111b9836112a2565b600101905060008167ffffffffffffffff8111156111d9576111d96114ab565b6040519080825280601f01601f191660200182016040528015611203576020820181803683370190505b5090508181016020015b600019016f181899199a1a9b1b9c1cb0b131b232b360811b600a86061a8153600a850494508461120d57509392505050565b60006001600160a01b03831615801590610dff5750826001600160a01b0316846001600160a01b031614806112795750611279848461089f565b80610dff5750506000908152600460205260409020546001600160a01b03908116911614919050565b60008072184f03e93ff9f4daa797ed6e38ed64bf6a1f0160401b83106112e15772184f03e93ff9f4daa797ed6e38ed64bf6a1f0160401b830492506040015b6d04ee2d6d415b85acef8100000000831061130d576d04ee2d6d415b85acef8100000000830492506020015b662386f26fc10000831061132b57662386f26fc10000830492506010015b6305f5e1008310611343576305f5e100830492506008015b612710831061135757612710830492506004015b60648310611369576064830492506002015b600a83106102b05760010192915050565b6001600160e01b03198116811461090857600080fd5b6000602082840312156113a257600080fd5b81356110dc8161137a565b60005b838110156113c85781810151838201526020016113b0565b50506000910152565b600081518084526113e98160208601602086016113ad565b601f01601f19169290920160200192915050565b6020815260006110dc60208301846113d1565b60006020828403121561142257600080fd5b5035919050565b80356001600160a01b038116811461144057600080fd5b919050565b6000806040838503121561145857600080fd5b61146183611429565b946020939093013593505050565b60008060006060848603121561148457600080fd5b61148d84611429565b925061149b60208501611429565b9150604084013590509250925092565b634e487b7160e01b600052604160045260246000fd5b600067ffffffffffffffff808411156114dc576114dc6114ab565b604051601f8501601f19908116603f01168101908282118183101715611504576115046114ab565b8160405280935085815286868601111561151d57600080fd5b858560208301376000602087830101525050509392505050565b600082601f83011261154857600080fd5b6110dc838335602085016114c1565b600080600080600080600060e0888a03121561157257600080fd5b61157b88611429565b9650602088013567ffffffffffffffff8082111561159857600080fd5b6115a48b838c01611537565b975060408a01359150808211156115ba57600080fd5b6115c68b838c01611537565b965060608a0135955060808a01359150808211156115e357600080fd5b6115ef8b838c01611537565b945060a08a013591508082111561160557600080fd5b6116118b838c01611537565b935060c08a013591508082111561162757600080fd5b506116348a828b01611537565b91505092959891949750929550565b602081526000825160a0602084015261165f60c08401826113d1565b90506020840151601f198085840301604086015261167d83836113d1565b92506040860151606086015260608601519150808584030160808601526116a483836113d1565b925060808601519150808584030160a086015250610a0e82826113d1565b6000602082840312156116d457600080fd5b6110dc82611429565b600080604083850312156116f057600080fd5b6116f983611429565b91506020830135801515811461170e57600080fd5b809150509250929050565b6000806000806080858703121561172f57600080fd5b61173885611429565b935061174660208601611429565b925060408501359150606085013567ffffffffffffffff81111561176957600080fd5b8501601f8101871361177a57600080fd5b611789878235602084016114c1565b91505092959194509250565b600080604083850312156117a857600080fd5b6117b183611429565b91506117bf60208401611429565b90509250929050565b600181811c908216806117dc57607f821691505b6020821081036117fc57634e487b7160e01b600052602260045260246000fd5b50919050565b60006001820161182257634e487b7160e01b600052601160045260246000fd5b5060010190565b601f8211156104fe57600081815260208120601f850160051c810160208610156118505750805b601f850160051c820191505b81811015610ced5782815560010161185c565b815167ffffffffffffffff811115611889576118896114ab565b61189d8161189784546117c8565b84611829565b602080601f8311600181146118d257600084156118ba5750858301515b600019600386901b1c1916600185901b178555610ced565b600085815260208120601f198616915b82811015611901578886015182559484019460019091019084016118e2565b508582101561191f5787850151600019600388901b60f8161c191681555b5050505050600190811b01905550565b6001600160a01b0385811682528416602082015260408101839052608060608201819052600090611962908301846113d1565b9695505050505050565b60006020828403121561197e57600080fd5b81516110dc8161137a565b6000835161199b8184602088016113ad565b8351908301906119af8183602088016113ad565b0194935050505056fea26469706673582212209b6501c75e008459c5ef2a42b3b7876497d1bcb58ff92a2870a7b0435240f0b464736f6c63430008140033",
  "linkReferences": {},
  "deployedLinkReferences": {}
}